{
  "_format": "hh-sol-artifact-1",
  "contractName": "WavePortal",
  "sourceName": "contracts/WavePortal.sol",
  "abi": [
    {
      "inputs": [],
      "stateMutability": "nonpayable",
      "type": "constructor"
    },
    {
      "inputs": [],
      "name": "getTotalWaves",
      "outputs": [
        {
          "internalType": "uint256",
          "name": "",
          "type": "uint256"
        }
      ],
      "stateMutability": "view",
      "type": "function"
    },
    {
      "inputs": [
        {
          "internalType": "address",
          "name": "_address",
          "type": "address"
        }
      ],
      "name": "getWaveCount",
      "outputs": [
        {
          "internalType": "uint256",
          "name": "",
          "type": "uint256"
        }
      ],
      "stateMutability": "view",
      "type": "function"
    },
    {
      "inputs": [],
      "name": "wave",
      "outputs": [],
      "stateMutability": "nonpayable",
      "type": "function"
    }
  ],
  "bytecode": "0x608060405234801561001057600080fd5b5061003c6040518060600160405280602c8152602001610a85602c913961004160201b6102bb1760201c565b6101c4565b6100dd816040516024016100559190610142565b6040516020818303038152906040527f41304fac000000000000000000000000000000000000000000000000000000007bffffffffffffffffffffffffffffffffffffffffffffffffffffffff19166020820180517bffffffffffffffffffffffffffffffffffffffffffffffffffffffff83818316178352505050506100e060201b60201c565b50565b60008151905060006a636f6e736f6c652e6c6f679050602083016000808483855afa5050505050565b600061011482610164565b61011e818561016f565b935061012e818560208601610180565b610137816101b3565b840191505092915050565b6000602082019050818103600083015261015c8184610109565b905092915050565b600081519050919050565b600082825260208201905092915050565b60005b8381101561019e578082015181840152602081019050610183565b838111156101ad576000848401525b50505050565b6000601f19601f8301169050919050565b6108b2806101d36000396000f3fe608060405234801561001057600080fd5b50600436106100415760003560e01c80635b2ae087146100465780636fe15b44146100765780639a2cdc0814610080575b600080fd5b610060600480360381019061005b91906105cc565b61009e565b60405161006d9190610736565b60405180910390f35b61007e6101b3565b005b610088610260565b6040516100959190610736565b60405180910390f35b6000806100e9600160003373ffffffffffffffffffffffffffffffffffffffff1673ffffffffffffffffffffffffffffffffffffffff16815260200190815260200160002054610354565b905061016b6040518060400160405280601181526020017f257320686173202564207761766525732100000000000000000000000000000081525033600160003373ffffffffffffffffffffffffffffffffffffffff1673ffffffffffffffffffffffffffffffffffffffff16815260200190815260200160002054846103b1565b600160008473ffffffffffffffffffffffffffffffffffffffff1673ffffffffffffffffffffffffffffffffffffffff16815260200190815260200160002054915050919050565b6000808154809291906101c5906107dc565b9190505550600160003373ffffffffffffffffffffffffffffffffffffffff1673ffffffffffffffffffffffffffffffffffffffff168152602001908152602001600020600081548092919061021a906107dc565b919050555061025e6040518060400160405280600d81526020017f257320686173207761766564210000000000000000000000000000000000000081525033610453565b565b60008061026e600054610354565b90506102b26040518060400160405280601881526020017f5765206861766520256420746f74616c20776176652573210000000000000000815250600054836104ef565b60005491505090565b610351816040516024016102cf919061064c565b6040516020818303038152906040527f41304fac000000000000000000000000000000000000000000000000000000007bffffffffffffffffffffffffffffffffffffffffffffffffffffffff19166020820180517bffffffffffffffffffffffffffffffffffffffffffffffffffffffff838183161783525050505061058e565b50565b606060018214610399576040518060400160405280600181526020017f73000000000000000000000000000000000000000000000000000000000000008152506103aa565b604051806020016040528060008152505b9050919050565b61044d848484846040516024016103cb949392919061069e565b6040516020818303038152906040527f4c55f234000000000000000000000000000000000000000000000000000000007bffffffffffffffffffffffffffffffffffffffffffffffffffffffff19166020820180517bffffffffffffffffffffffffffffffffffffffffffffffffffffffff838183161783525050505061058e565b50505050565b6104eb828260405160240161046992919061066e565b6040516020818303038152906040527f319af333000000000000000000000000000000000000000000000000000000007bffffffffffffffffffffffffffffffffffffffffffffffffffffffff19166020820180517bffffffffffffffffffffffffffffffffffffffffffffffffffffffff838183161783525050505061058e565b5050565b610589838383604051602401610507939291906106f1565b6040516020818303038152906040527fa3f5c739000000000000000000000000000000000000000000000000000000007bffffffffffffffffffffffffffffffffffffffffffffffffffffffff19166020820180517bffffffffffffffffffffffffffffffffffffffffffffffffffffffff838183161783525050505061058e565b505050565b60008151905060006a636f6e736f6c652e6c6f679050602083016000808483855afa5050505050565b6000813590506105c681610865565b92915050565b6000602082840312156105de57600080fd5b60006105ec848285016105b7565b91505092915050565b6105fe8161076d565b82525050565b600061060f82610751565b610619818561075c565b93506106298185602086016107a9565b61063281610854565b840191505092915050565b6106468161079f565b82525050565b600060208201905081810360008301526106668184610604565b905092915050565b600060408201905081810360008301526106888185610604565b905061069760208301846105f5565b9392505050565b600060808201905081810360008301526106b88187610604565b90506106c760208301866105f5565b6106d4604083018561063d565b81810360608301526106e68184610604565b905095945050505050565b6000606082019050818103600083015261070b8186610604565b905061071a602083018561063d565b818103604083015261072c8184610604565b9050949350505050565b600060208201905061074b600083018461063d565b92915050565b600081519050919050565b600082825260208201905092915050565b60006107788261077f565b9050919050565b600073ffffffffffffffffffffffffffffffffffffffff82169050919050565b6000819050919050565b60005b838110156107c75780820151818401526020810190506107ac565b838111156107d6576000848401525b50505050565b60006107e78261079f565b91507fffffffffffffffffffffffffffffffffffffffffffffffffffffffffffffffff82141561081a57610819610825565b5b600182019050919050565b7f4e487b7100000000000000000000000000000000000000000000000000000000600052601160045260246000fd5b6000601f19601f8301169050919050565b61086e8161076d565b811461087957600080fd5b5056fea2646970667358221220c60e28e784471d28584b89b9ad7ea06ebc2cba6566086fdcea6ec9819cd9599a64736f6c634300080400334865792c2049276d206120736d61727420636f6e747261637421204e69636520746f206d65657420796f752e",
  "linkReferences": {},
  "deployedLinkReferences": {}
}