{
  "_format": "hh-sol-artifact-1",
  "contractName": "WavePortal",
  "sourceName": "contracts/WavePortal.sol",
  "abi": [
    {
      "inputs": [],
      "stateMutability": "payable",
      "type": "constructor"
    },
    {
      "anonymous": false,
      "inputs": [
        {
          "indexed": true,
          "internalType": "address",
          "name": "from",
          "type": "address"
        },
        {
          "indexed": false,
          "internalType": "string",
          "name": "message",
          "type": "string"
        },
        {
          "indexed": false,
          "internalType": "uint256",
          "name": "blockNumber",
          "type": "uint256"
        }
      ],
      "name": "NewWave",
      "type": "event"
    },
    {
      "inputs": [],
      "name": "getAllWaves",
      "outputs": [
        {
          "components": [
            {
              "internalType": "address",
              "name": "waver",
              "type": "address"
            },
            {
              "internalType": "string",
              "name": "message",
              "type": "string"
            },
            {
              "internalType": "uint256",
              "name": "blockNumber",
              "type": "uint256"
            }
          ],
          "internalType": "struct WavePortal.Wave[]",
          "name": "",
          "type": "tuple[]"
        }
      ],
      "stateMutability": "view",
      "type": "function"
    },
    {
      "inputs": [],
      "name": "getTotalWaves",
      "outputs": [
        {
          "internalType": "uint256",
          "name": "",
          "type": "uint256"
        }
      ],
      "stateMutability": "view",
      "type": "function"
    },
    {
      "inputs": [
        {
          "internalType": "address",
          "name": "_address",
          "type": "address"
        }
      ],
      "name": "getWaveCount",
      "outputs": [
        {
          "internalType": "uint256",
          "name": "",
          "type": "uint256"
        }
      ],
      "stateMutability": "view",
      "type": "function"
    },
    {
      "inputs": [
        {
          "internalType": "address",
          "name": "",
          "type": "address"
        }
      ],
      "name": "lastWavedAt",
      "outputs": [
        {
          "internalType": "uint256",
          "name": "",
          "type": "uint256"
        }
      ],
      "stateMutability": "view",
      "type": "function"
    },
    {
      "inputs": [
        {
          "internalType": "string",
          "name": "_message",
          "type": "string"
        }
      ],
      "name": "wave",
      "outputs": [],
      "stateMutability": "nonpayable",
      "type": "function"
    }
  ],
  "bytecode": "0x6080604052620000336040518060600160405280602c8152602001620014d3602c91396200003960201b620007921760201c565b620001cd565b620000d98160405160240162000050919062000146565b6040516020818303038152906040527f41304fac000000000000000000000000000000000000000000000000000000007bffffffffffffffffffffffffffffffffffffffffffffffffffffffff19166020820180517bffffffffffffffffffffffffffffffffffffffffffffffffffffffff8381831617835250505050620000dc60201b60201c565b50565b60008151905060006a636f6e736f6c652e6c6f679050602083016000808483855afa5050505050565b600062000112826200016a565b6200011e818562000175565b93506200013081856020860162000186565b6200013b81620001bc565b840191505092915050565b6000602082019050818103600083015262000162818462000105565b905092915050565b600081519050919050565b600082825260208201905092915050565b60005b83811015620001a657808201518184015260208101905062000189565b83811115620001b6576000848401525b50505050565b6000601f19601f8301169050919050565b6112f680620001dd6000396000f3fe608060405234801561001057600080fd5b50600436106100575760003560e01c8063449d46c01461005c5780635b2ae087146100785780639a2cdc08146100a8578063a42a4663146100c6578063bd43a908146100f6575b600080fd5b61007660048036038101906100719190610b74565b610114565b005b610092600480360381019061008d9190610b4b565b610516565b60405161009f9190610ef8565b60405180910390f35b6100b06105de565b6040516100bd9190610ef8565b60405180910390f35b6100e060048036038101906100db9190610b4b565b610629565b6040516100ed9190610ef8565b60405180910390f35b6100fe610641565b60405161010b9190610dd6565b60405180910390f35b42610384600460003373ffffffffffffffffffffffffffffffffffffffff1673ffffffffffffffffffffffffffffffffffffffff168152602001908152602001600020546101629190610fcf565b106101a2576040517f08c379a000000000000000000000000000000000000000000000000000000000815260040161019990610ed8565b60405180910390fd5b42600460003373ffffffffffffffffffffffffffffffffffffffff1673ffffffffffffffffffffffffffffffffffffffff168152602001908152602001600020819055506000808154809291906101f890611106565b9190505550600160003373ffffffffffffffffffffffffffffffffffffffff1673ffffffffffffffffffffffffffffffffffffffff168152602001908152602001600020600081548092919061024d90611106565b91905055506102916040518060400160405280600d81526020017f25732068617320776176656421000000000000000000000000000000000000008152503361082b565b600360405180606001604052803373ffffffffffffffffffffffffffffffffffffffff16815260200183815260200143815250908060018154018082558091505060019003906000526020600020906003020160009091909190915060008201518160000160006101000a81548173ffffffffffffffffffffffffffffffffffffffff021916908373ffffffffffffffffffffffffffffffffffffffff1602179055506020820151816001019080519060200190610350929190610a2b565b5060408201518160020155505060006064444260025460405160200161037893929190610d99565b6040516020818303038152906040528051906020012060001c61039b9190611159565b90506103dc6040518060400160405280601681526020017f52616e646f6d20232067656e6572617465643a20257300000000000000000000815250826108c7565b8060028190555060328110156104c25761042b6040518060400160405280600781526020017f257320776f6e21000000000000000000000000000000000000000000000000008152503361082b565b6000655af3107a4000905047811115610479576040517f08c379a000000000000000000000000000000000000000000000000000000000815260040161047090610eb8565b60405180910390fd5b3373ffffffffffffffffffffffffffffffffffffffff166108fc829081150290604051600060405180830381858888f193505050501580156104bf573d6000803e3d6000fd5b50505b3373ffffffffffffffffffffffffffffffffffffffff167f6728ef66814a55b797863bf8ffcd954b19cbca4ed4f0e6cf04c980705fd82c36834360405161050a929190610e88565b60405180910390a25050565b60006105976040518060400160405280601081526020017f257320686173202564207761766573210000000000000000000000000000000081525033600160003373ffffffffffffffffffffffffffffffffffffffff1673ffffffffffffffffffffffffffffffffffffffff16815260200190815260200160002054610963565b600160008373ffffffffffffffffffffffffffffffffffffffff1673ffffffffffffffffffffffffffffffffffffffff168152602001908152602001600020549050919050565b60006106216040518060400160405280601781526020017f5765206861766520256420746f74616c207761766573210000000000000000008152506000546108c7565b600054905090565b60046020528060005260406000206000915090505481565b60606003805480602002602001604051908101604052809291908181526020016000905b8282101561078957838290600052602060002090600302016040518060600160405290816000820160009054906101000a900473ffffffffffffffffffffffffffffffffffffffff1673ffffffffffffffffffffffffffffffffffffffff1673ffffffffffffffffffffffffffffffffffffffff1681526020016001820180546106ee906110a3565b80601f016020809104026020016040519081016040528092919081815260200182805461071a906110a3565b80156107675780601f1061073c57610100808354040283529160200191610767565b820191906000526020600020905b81548152906001019060200180831161074a57829003601f168201915b5050505050815260200160028201548152505081526020019060010190610665565b50505050905090565b610828816040516024016107a69190610df8565b6040516020818303038152906040527f41304fac000000000000000000000000000000000000000000000000000000007bffffffffffffffffffffffffffffffffffffffffffffffffffffffff19166020820180517bffffffffffffffffffffffffffffffffffffffffffffffffffffffff8381831617835250505050610a02565b50565b6108c38282604051602401610841929190610e1a565b6040516020818303038152906040527f319af333000000000000000000000000000000000000000000000000000000007bffffffffffffffffffffffffffffffffffffffffffffffffffffffff19166020820180517bffffffffffffffffffffffffffffffffffffffffffffffffffffffff8381831617835250505050610a02565b5050565b61095f82826040516024016108dd929190610e88565b6040516020818303038152906040527f9710a9d0000000000000000000000000000000000000000000000000000000007bffffffffffffffffffffffffffffffffffffffffffffffffffffffff19166020820180517bffffffffffffffffffffffffffffffffffffffffffffffffffffffff8381831617835250505050610a02565b5050565b6109fd83838360405160240161097b93929190610e4a565b6040516020818303038152906040527f07c81217000000000000000000000000000000000000000000000000000000007bffffffffffffffffffffffffffffffffffffffffffffffffffffffff19166020820180517bffffffffffffffffffffffffffffffffffffffffffffffffffffffff8381831617835250505050610a02565b505050565b60008151905060006a636f6e736f6c652e6c6f679050602083016000808483855afa5050505050565b828054610a37906110a3565b90600052602060002090601f016020900481019282610a595760008555610aa0565b82601f10610a7257805160ff1916838001178555610aa0565b82800160010185558215610aa0579182015b82811115610a9f578251825591602001919060010190610a84565b5b509050610aad9190610ab1565b5090565b5b80821115610aca576000816000905550600101610ab2565b5090565b6000610ae1610adc84610f38565b610f13565b905082815260208101848484011115610af957600080fd5b610b04848285611061565b509392505050565b600081359050610b1b816112a9565b92915050565b600082601f830112610b3257600080fd5b8135610b42848260208601610ace565b91505092915050565b600060208284031215610b5d57600080fd5b6000610b6b84828501610b0c565b91505092915050565b600060208284031215610b8657600080fd5b600082013567ffffffffffffffff811115610ba057600080fd5b610bac84828501610b21565b91505092915050565b6000610bc18383610d14565b905092915050565b610bd281611025565b82525050565b610be181611025565b82525050565b6000610bf282610f79565b610bfc8185610f9c565b935083602082028501610c0e85610f69565b8060005b85811015610c4a5784840389528151610c2b8582610bb5565b9450610c3683610f8f565b925060208a01995050600181019050610c12565b50829750879550505050505092915050565b6000610c6782610f84565b610c718185610fad565b9350610c81818560208601611070565b610c8a81611246565b840191505092915050565b6000610ca082610f84565b610caa8185610fbe565b9350610cba818560208601611070565b610cc381611246565b840191505092915050565b6000610cdb601c83610fbe565b9150610ce682611257565b602082019050919050565b6000610cfe600883610fbe565b9150610d0982611280565b602082019050919050565b6000606083016000830151610d2c6000860182610bc9565b5060208301518482036020860152610d448282610c5c565b9150506040830151610d596040860182610d64565b508091505092915050565b610d6d81611057565b82525050565b610d7c81611057565b82525050565b610d93610d8e82611057565b61114f565b82525050565b6000610da58286610d82565b602082019150610db58285610d82565b602082019150610dc58284610d82565b602082019150819050949350505050565b60006020820190508181036000830152610df08184610be7565b905092915050565b60006020820190508181036000830152610e128184610c95565b905092915050565b60006040820190508181036000830152610e348185610c95565b9050610e436020830184610bd8565b9392505050565b60006060820190508181036000830152610e648186610c95565b9050610e736020830185610bd8565b610e806040830184610d73565b949350505050565b60006040820190508181036000830152610ea28185610c95565b9050610eb16020830184610d73565b9392505050565b60006020820190508181036000830152610ed181610cce565b9050919050565b60006020820190508181036000830152610ef181610cf1565b9050919050565b6000602082019050610f0d6000830184610d73565b92915050565b6000610f1d610f2e565b9050610f2982826110d5565b919050565b6000604051905090565b600067ffffffffffffffff821115610f5357610f52611217565b5b610f5c82611246565b9050602081019050919050565b6000819050602082019050919050565b600081519050919050565b600081519050919050565b6000602082019050919050565b600082825260208201905092915050565b600082825260208201905092915050565b600082825260208201905092915050565b6000610fda82611057565b9150610fe583611057565b9250827fffffffffffffffffffffffffffffffffffffffffffffffffffffffffffffffff0382111561101a5761101961118a565b5b828201905092915050565b600061103082611037565b9050919050565b600073ffffffffffffffffffffffffffffffffffffffff82169050919050565b6000819050919050565b82818337600083830152505050565b60005b8381101561108e578082015181840152602081019050611073565b8381111561109d576000848401525b50505050565b600060028204905060018216806110bb57607f821691505b602082108114156110cf576110ce6111e8565b5b50919050565b6110de82611246565b810181811067ffffffffffffffff821117156110fd576110fc611217565b5b80604052505050565b600061111182611057565b91507fffffffffffffffffffffffffffffffffffffffffffffffffffffffffffffffff8214156111445761114361118a565b5b600182019050919050565b6000819050919050565b600061116482611057565b915061116f83611057565b92508261117f5761117e6111b9565b5b828206905092915050565b7f4e487b7100000000000000000000000000000000000000000000000000000000600052601160045260246000fd5b7f4e487b7100000000000000000000000000000000000000000000000000000000600052601260045260246000fd5b7f4e487b7100000000000000000000000000000000000000000000000000000000600052602260045260246000fd5b7f4e487b7100000000000000000000000000000000000000000000000000000000600052604160045260246000fd5b6000601f19601f8301169050919050565b7f436f6e74726163742062616c616e636520697320746f6f206c6f772e00000000600082015250565b7f576169742031356d000000000000000000000000000000000000000000000000600082015250565b6112b281611025565b81146112bd57600080fd5b5056fea26469706673582212208c24c836429c5174fb223c74eb6727033777e0eb2370dc7918f6e76fb5c7fadc64736f6c634300080400334865792c2049276d206120736d61727420636f6e747261637421204e69636520746f206d65657420796f752e",
  "linkReferences": {},
  "deployedLinkReferences": {}
}