{
  "_format": "hh-sol-artifact-1",
  "contractName": "WavePortal",
  "sourceName": "contracts/WavePortal.sol",
  "abi": [
    {
      "inputs": [],
      "stateMutability": "payable",
      "type": "constructor"
    },
    {
      "anonymous": false,
      "inputs": [
        {
          "indexed": true,
          "internalType": "address",
          "name": "from",
          "type": "address"
        },
        {
          "indexed": false,
          "internalType": "string",
          "name": "message",
          "type": "string"
        },
        {
          "indexed": false,
          "internalType": "uint256",
          "name": "blockNumber",
          "type": "uint256"
        }
      ],
      "name": "NewWave",
      "type": "event"
    },
    {
      "inputs": [],
      "name": "getAllWaves",
      "outputs": [
        {
          "components": [
            {
              "internalType": "address",
              "name": "waver",
              "type": "address"
            },
            {
              "internalType": "string",
              "name": "message",
              "type": "string"
            },
            {
              "internalType": "uint256",
              "name": "blockNumber",
              "type": "uint256"
            }
          ],
          "internalType": "struct WavePortal.Wave[]",
          "name": "",
          "type": "tuple[]"
        }
      ],
      "stateMutability": "view",
      "type": "function"
    },
    {
      "inputs": [],
      "name": "getTotalWaves",
      "outputs": [
        {
          "internalType": "uint256",
          "name": "",
          "type": "uint256"
        }
      ],
      "stateMutability": "view",
      "type": "function"
    },
    {
      "inputs": [
        {
          "internalType": "address",
          "name": "_address",
          "type": "address"
        }
      ],
      "name": "getWaveCount",
      "outputs": [
        {
          "internalType": "uint256",
          "name": "",
          "type": "uint256"
        }
      ],
      "stateMutability": "view",
      "type": "function"
    },
    {
      "inputs": [
        {
          "internalType": "string",
          "name": "_message",
          "type": "string"
        }
      ],
      "name": "wave",
      "outputs": [],
      "stateMutability": "nonpayable",
      "type": "function"
    }
  ],
  "bytecode": "0x6080604052620000336040518060600160405280602c81526020016200115e602c91396200003960201b6200059d1760201c565b620001cd565b620000d98160405160240162000050919062000146565b6040516020818303038152906040527f41304fac000000000000000000000000000000000000000000000000000000007bffffffffffffffffffffffffffffffffffffffffffffffffffffffff19166020820180517bffffffffffffffffffffffffffffffffffffffffffffffffffffffff8381831617835250505050620000dc60201b60201c565b50565b60008151905060006a636f6e736f6c652e6c6f679050602083016000808483855afa5050505050565b600062000112826200016a565b6200011e818562000175565b93506200013081856020860162000186565b6200013b81620001bc565b840191505092915050565b6000602082019050818103600083015262000162818462000105565b905092915050565b600081519050919050565b600082825260208201905092915050565b60005b83811015620001a657808201518184015260208101905062000189565b83811115620001b6576000848401525b50505050565b6000601f19601f8301169050919050565b610f8180620001dd6000396000f3fe608060405234801561001057600080fd5b506004361061004c5760003560e01c8063449d46c0146100515780635b2ae0871461006d5780639a2cdc081461009d578063bd43a908146100bb575b600080fd5b61006b6004803603810190610066919061097f565b6100d9565b005b61008760048036038101906100829190610956565b610339565b6040516100949190610c6c565b60405180910390f35b6100a5610401565b6040516100b29190610c6c565b60405180910390f35b6100c361044c565b6040516100d09190610b6a565b60405180910390f35b6000808154809291906100eb90610e24565b9190505550600160003373ffffffffffffffffffffffffffffffffffffffff1673ffffffffffffffffffffffffffffffffffffffff168152602001908152602001600020600081548092919061014090610e24565b91905055506101846040518060400160405280600d81526020017f257320686173207761766564210000000000000000000000000000000000000081525033610636565b600260405180606001604052803373ffffffffffffffffffffffffffffffffffffffff16815260200183815260200143815250908060018154018082558091505060019003906000526020600020906003020160009091909190915060008201518160000160006101000a81548173ffffffffffffffffffffffffffffffffffffffff021916908373ffffffffffffffffffffffffffffffffffffffff1602179055506020820151816001019080519060200190610243929190610836565b506040820151816002015550503373ffffffffffffffffffffffffffffffffffffffff167f6728ef66814a55b797863bf8ffcd954b19cbca4ed4f0e6cf04c980705fd82c368243604051610298929190610c1c565b60405180910390a26000655af3107a40009050478111156102ee576040517f08c379a00000000000000000000000000000000000000000000000000000000081526004016102e590610c4c565b60405180910390fd5b3373ffffffffffffffffffffffffffffffffffffffff166108fc829081150290604051600060405180830381858888f19350505050158015610334573d6000803e3d6000fd5b505050565b60006103ba6040518060400160405280601081526020017f257320686173202564207761766573210000000000000000000000000000000081525033600160003373ffffffffffffffffffffffffffffffffffffffff1673ffffffffffffffffffffffffffffffffffffffff168152602001908152602001600020546106d2565b600160008373ffffffffffffffffffffffffffffffffffffffff1673ffffffffffffffffffffffffffffffffffffffff168152602001908152602001600020549050919050565b60006104446040518060400160405280601781526020017f5765206861766520256420746f74616c20776176657321000000000000000000815250600054610771565b600054905090565b60606002805480602002602001604051908101604052809291908181526020016000905b8282101561059457838290600052602060002090600302016040518060600160405290816000820160009054906101000a900473ffffffffffffffffffffffffffffffffffffffff1673ffffffffffffffffffffffffffffffffffffffff1673ffffffffffffffffffffffffffffffffffffffff1681526020016001820180546104f990610dc1565b80601f016020809104026020016040519081016040528092919081815260200182805461052590610dc1565b80156105725780601f1061054757610100808354040283529160200191610572565b820191906000526020600020905b81548152906001019060200180831161055557829003601f168201915b5050505050815260200160028201548152505081526020019060010190610470565b50505050905090565b610633816040516024016105b19190610b8c565b6040516020818303038152906040527f41304fac000000000000000000000000000000000000000000000000000000007bffffffffffffffffffffffffffffffffffffffffffffffffffffffff19166020820180517bffffffffffffffffffffffffffffffffffffffffffffffffffffffff838183161783525050505061080d565b50565b6106ce828260405160240161064c929190610bae565b6040516020818303038152906040527f319af333000000000000000000000000000000000000000000000000000000007bffffffffffffffffffffffffffffffffffffffffffffffffffffffff19166020820180517bffffffffffffffffffffffffffffffffffffffffffffffffffffffff838183161783525050505061080d565b5050565b61076c8383836040516024016106ea93929190610bde565b6040516020818303038152906040527f07c81217000000000000000000000000000000000000000000000000000000007bffffffffffffffffffffffffffffffffffffffffffffffffffffffff19166020820180517bffffffffffffffffffffffffffffffffffffffffffffffffffffffff838183161783525050505061080d565b505050565b6108098282604051602401610787929190610c1c565b6040516020818303038152906040527f9710a9d0000000000000000000000000000000000000000000000000000000007bffffffffffffffffffffffffffffffffffffffffffffffffffffffff19166020820180517bffffffffffffffffffffffffffffffffffffffffffffffffffffffff838183161783525050505061080d565b5050565b60008151905060006a636f6e736f6c652e6c6f679050602083016000808483855afa5050505050565b82805461084290610dc1565b90600052602060002090601f01602090048101928261086457600085556108ab565b82601f1061087d57805160ff19168380011785556108ab565b828001600101855582156108ab579182015b828111156108aa57825182559160200191906001019061088f565b5b5090506108b891906108bc565b5090565b5b808211156108d55760008160009055506001016108bd565b5090565b60006108ec6108e784610cac565b610c87565b90508281526020810184848401111561090457600080fd5b61090f848285610d7f565b509392505050565b60008135905061092681610f34565b92915050565b600082601f83011261093d57600080fd5b813561094d8482602086016108d9565b91505092915050565b60006020828403121561096857600080fd5b600061097684828501610917565b91505092915050565b60006020828403121561099157600080fd5b600082013567ffffffffffffffff8111156109ab57600080fd5b6109b78482850161092c565b91505092915050565b60006109cc8383610afc565b905092915050565b6109dd81610d43565b82525050565b6109ec81610d43565b82525050565b60006109fd82610ced565b610a078185610d10565b935083602082028501610a1985610cdd565b8060005b85811015610a555784840389528151610a3685826109c0565b9450610a4183610d03565b925060208a01995050600181019050610a1d565b50829750879550505050505092915050565b6000610a7282610cf8565b610a7c8185610d21565b9350610a8c818560208601610d8e565b610a9581610efa565b840191505092915050565b6000610aab82610cf8565b610ab58185610d32565b9350610ac5818560208601610d8e565b610ace81610efa565b840191505092915050565b6000610ae6601c83610d32565b9150610af182610f0b565b602082019050919050565b6000606083016000830151610b1460008601826109d4565b5060208301518482036020860152610b2c8282610a67565b9150506040830151610b416040860182610b4c565b508091505092915050565b610b5581610d75565b82525050565b610b6481610d75565b82525050565b60006020820190508181036000830152610b8481846109f2565b905092915050565b60006020820190508181036000830152610ba68184610aa0565b905092915050565b60006040820190508181036000830152610bc88185610aa0565b9050610bd760208301846109e3565b9392505050565b60006060820190508181036000830152610bf88186610aa0565b9050610c0760208301856109e3565b610c146040830184610b5b565b949350505050565b60006040820190508181036000830152610c368185610aa0565b9050610c456020830184610b5b565b9392505050565b60006020820190508181036000830152610c6581610ad9565b9050919050565b6000602082019050610c816000830184610b5b565b92915050565b6000610c91610ca2565b9050610c9d8282610df3565b919050565b6000604051905090565b600067ffffffffffffffff821115610cc757610cc6610ecb565b5b610cd082610efa565b9050602081019050919050565b6000819050602082019050919050565b600081519050919050565b600081519050919050565b6000602082019050919050565b600082825260208201905092915050565b600082825260208201905092915050565b600082825260208201905092915050565b6000610d4e82610d55565b9050919050565b600073ffffffffffffffffffffffffffffffffffffffff82169050919050565b6000819050919050565b82818337600083830152505050565b60005b83811015610dac578082015181840152602081019050610d91565b83811115610dbb576000848401525b50505050565b60006002820490506001821680610dd957607f821691505b60208210811415610ded57610dec610e9c565b5b50919050565b610dfc82610efa565b810181811067ffffffffffffffff82111715610e1b57610e1a610ecb565b5b80604052505050565b6000610e2f82610d75565b91507fffffffffffffffffffffffffffffffffffffffffffffffffffffffffffffffff821415610e6257610e61610e6d565b5b600182019050919050565b7f4e487b7100000000000000000000000000000000000000000000000000000000600052601160045260246000fd5b7f4e487b7100000000000000000000000000000000000000000000000000000000600052602260045260246000fd5b7f4e487b7100000000000000000000000000000000000000000000000000000000600052604160045260246000fd5b6000601f19601f8301169050919050565b7f436f6e74726163742062616c616e636520697320746f6f206c6f772e00000000600082015250565b610f3d81610d43565b8114610f4857600080fd5b5056fea2646970667358221220655c65ff8ace6d48707d34f486d70530003f46e576a62bc1898fd1a4383eda2e64736f6c634300080400334865792c2049276d206120736d61727420636f6e747261637421204e69636520746f206d65657420796f752e",
  "linkReferences": {},
  "deployedLinkReferences": {}
}