{
  "_format": "hh-sol-artifact-1",
  "contractName": "WavePortal",
  "sourceName": "contracts/WavePortal.sol",
  "abi": [
    {
      "inputs": [],
      "stateMutability": "nonpayable",
      "type": "constructor"
    },
    {
      "anonymous": false,
      "inputs": [
        {
          "indexed": true,
          "internalType": "address",
          "name": "from",
          "type": "address"
        },
        {
          "indexed": false,
          "internalType": "string",
          "name": "message",
          "type": "string"
        },
        {
          "indexed": false,
          "internalType": "uint256",
          "name": "timestamp",
          "type": "uint256"
        }
      ],
      "name": "NewWave",
      "type": "event"
    },
    {
      "inputs": [],
      "name": "getAllWaves",
      "outputs": [
        {
          "components": [
            {
              "internalType": "address",
              "name": "waver",
              "type": "address"
            },
            {
              "internalType": "string",
              "name": "message",
              "type": "string"
            },
            {
              "internalType": "uint256",
              "name": "timestamp",
              "type": "uint256"
            }
          ],
          "internalType": "struct WavePortal.Wave[]",
          "name": "",
          "type": "tuple[]"
        }
      ],
      "stateMutability": "view",
      "type": "function"
    },
    {
      "inputs": [],
      "name": "getTotalWaves",
      "outputs": [
        {
          "internalType": "uint256",
          "name": "",
          "type": "uint256"
        }
      ],
      "stateMutability": "view",
      "type": "function"
    },
    {
      "inputs": [
        {
          "internalType": "address",
          "name": "_address",
          "type": "address"
        }
      ],
      "name": "getWaveCount",
      "outputs": [
        {
          "internalType": "uint256",
          "name": "",
          "type": "uint256"
        }
      ],
      "stateMutability": "view",
      "type": "function"
    },
    {
      "inputs": [
        {
          "internalType": "string",
          "name": "_message",
          "type": "string"
        }
      ],
      "name": "wave",
      "outputs": [],
      "stateMutability": "nonpayable",
      "type": "function"
    }
  ],
  "bytecode": "0x60806040523480156200001157600080fd5b50620000416040518060600160405280602c81526020016200106a602c91396200004760201b620005071760201c565b620001db565b620000e7816040516024016200005e919062000154565b6040516020818303038152906040527f41304fac000000000000000000000000000000000000000000000000000000007bffffffffffffffffffffffffffffffffffffffffffffffffffffffff19166020820180517bffffffffffffffffffffffffffffffffffffffffffffffffffffffff8381831617835250505050620000ea60201b60201c565b50565b60008151905060006a636f6e736f6c652e6c6f679050602083016000808483855afa5050505050565b6000620001208262000178565b6200012c818562000183565b93506200013e81856020860162000194565b6200014981620001ca565b840191505092915050565b6000602082019050818103600083015262000170818462000113565b905092915050565b600081519050919050565b600082825260208201905092915050565b60005b83811015620001b457808201518184015260208101905062000197565b83811115620001c4576000848401525b50505050565b6000601f19601f8301169050919050565b610e7f80620001eb6000396000f3fe608060405234801561001057600080fd5b506004361061004c5760003560e01c8063449d46c0146100515780635b2ae0871461006d5780639a2cdc081461009d578063bd43a908146100bb575b600080fd5b61006b600480360381019061006691906108e9565b6100d9565b005b610087600480360381019061008291906108c0565b6102a3565b6040516100949190610b93565b60405180910390f35b6100a561036b565b6040516100b29190610b93565b60405180910390f35b6100c36103b6565b6040516100d09190610ab1565b60405180910390f35b6000808154809291906100eb90610d4b565b9190505550600160003373ffffffffffffffffffffffffffffffffffffffff1673ffffffffffffffffffffffffffffffffffffffff168152602001908152602001600020600081548092919061014090610d4b565b91905055506101846040518060400160405280600d81526020017f2573206861732077617665642100000000000000000000000000000000000000815250336105a0565b600260405180606001604052803373ffffffffffffffffffffffffffffffffffffffff16815260200183815260200143815250908060018154018082558091505060019003906000526020600020906003020160009091909190915060008201518160000160006101000a81548173ffffffffffffffffffffffffffffffffffffffff021916908373ffffffffffffffffffffffffffffffffffffffff16021790555060208201518160010190805190602001906102439291906107a0565b506040820151816002015550503373ffffffffffffffffffffffffffffffffffffffff167f6728ef66814a55b797863bf8ffcd954b19cbca4ed4f0e6cf04c980705fd82c368243604051610298929190610b63565b60405180910390a250565b60006103246040518060400160405280601081526020017f257320686173202564207761766573210000000000000000000000000000000081525033600160003373ffffffffffffffffffffffffffffffffffffffff1673ffffffffffffffffffffffffffffffffffffffff1681526020019081526020016000205461063c565b600160008373ffffffffffffffffffffffffffffffffffffffff1673ffffffffffffffffffffffffffffffffffffffff168152602001908152602001600020549050919050565b60006103ae6040518060400160405280601781526020017f5765206861766520256420746f74616c207761766573210000000000000000008152506000546106db565b600054905090565b60606002805480602002602001604051908101604052809291908181526020016000905b828210156104fe57838290600052602060002090600302016040518060600160405290816000820160009054906101000a900473ffffffffffffffffffffffffffffffffffffffff1673ffffffffffffffffffffffffffffffffffffffff1673ffffffffffffffffffffffffffffffffffffffff16815260200160018201805461046390610ce8565b80601f016020809104026020016040519081016040528092919081815260200182805461048f90610ce8565b80156104dc5780601f106104b1576101008083540402835291602001916104dc565b820191906000526020600020905b8154815290600101906020018083116104bf57829003601f168201915b50505050508152602001600282015481525050815260200190600101906103da565b50505050905090565b61059d8160405160240161051b9190610ad3565b6040516020818303038152906040527f41304fac000000000000000000000000000000000000000000000000000000007bffffffffffffffffffffffffffffffffffffffffffffffffffffffff19166020820180517bffffffffffffffffffffffffffffffffffffffffffffffffffffffff8381831617835250505050610777565b50565b61063882826040516024016105b6929190610af5565b6040516020818303038152906040527f319af333000000000000000000000000000000000000000000000000000000007bffffffffffffffffffffffffffffffffffffffffffffffffffffffff19166020820180517bffffffffffffffffffffffffffffffffffffffffffffffffffffffff8381831617835250505050610777565b5050565b6106d683838360405160240161065493929190610b25565b6040516020818303038152906040527f07c81217000000000000000000000000000000000000000000000000000000007bffffffffffffffffffffffffffffffffffffffffffffffffffffffff19166020820180517bffffffffffffffffffffffffffffffffffffffffffffffffffffffff8381831617835250505050610777565b505050565b61077382826040516024016106f1929190610b63565b6040516020818303038152906040527f9710a9d0000000000000000000000000000000000000000000000000000000007bffffffffffffffffffffffffffffffffffffffffffffffffffffffff19166020820180517bffffffffffffffffffffffffffffffffffffffffffffffffffffffff8381831617835250505050610777565b5050565b60008151905060006a636f6e736f6c652e6c6f679050602083016000808483855afa5050505050565b8280546107ac90610ce8565b90600052602060002090601f0160209004810192826107ce5760008555610815565b82601f106107e757805160ff1916838001178555610815565b82800160010185558215610815579182015b828111156108145782518255916020019190600101906107f9565b5b5090506108229190610826565b5090565b5b8082111561083f576000816000905550600101610827565b5090565b600061085661085184610bd3565b610bae565b90508281526020810184848401111561086e57600080fd5b610879848285610ca6565b509392505050565b60008135905061089081610e32565b92915050565b600082601f8301126108a757600080fd5b81356108b7848260208601610843565b91505092915050565b6000602082840312156108d257600080fd5b60006108e084828501610881565b91505092915050565b6000602082840312156108fb57600080fd5b600082013567ffffffffffffffff81111561091557600080fd5b61092184828501610896565b91505092915050565b60006109368383610a43565b905092915050565b61094781610c6a565b82525050565b61095681610c6a565b82525050565b600061096782610c14565b6109718185610c37565b93508360208202850161098385610c04565b8060005b858110156109bf57848403895281516109a0858261092a565b94506109ab83610c2a565b925060208a01995050600181019050610987565b50829750879550505050505092915050565b60006109dc82610c1f565b6109e68185610c48565b93506109f6818560208601610cb5565b6109ff81610e21565b840191505092915050565b6000610a1582610c1f565b610a1f8185610c59565b9350610a2f818560208601610cb5565b610a3881610e21565b840191505092915050565b6000606083016000830151610a5b600086018261093e565b5060208301518482036020860152610a7382826109d1565b9150506040830151610a886040860182610a93565b508091505092915050565b610a9c81610c9c565b82525050565b610aab81610c9c565b82525050565b60006020820190508181036000830152610acb818461095c565b905092915050565b60006020820190508181036000830152610aed8184610a0a565b905092915050565b60006040820190508181036000830152610b0f8185610a0a565b9050610b1e602083018461094d565b9392505050565b60006060820190508181036000830152610b3f8186610a0a565b9050610b4e602083018561094d565b610b5b6040830184610aa2565b949350505050565b60006040820190508181036000830152610b7d8185610a0a565b9050610b8c6020830184610aa2565b9392505050565b6000602082019050610ba86000830184610aa2565b92915050565b6000610bb8610bc9565b9050610bc48282610d1a565b919050565b6000604051905090565b600067ffffffffffffffff821115610bee57610bed610df2565b5b610bf782610e21565b9050602081019050919050565b6000819050602082019050919050565b600081519050919050565b600081519050919050565b6000602082019050919050565b600082825260208201905092915050565b600082825260208201905092915050565b600082825260208201905092915050565b6000610c7582610c7c565b9050919050565b600073ffffffffffffffffffffffffffffffffffffffff82169050919050565b6000819050919050565b82818337600083830152505050565b60005b83811015610cd3578082015181840152602081019050610cb8565b83811115610ce2576000848401525b50505050565b60006002820490506001821680610d0057607f821691505b60208210811415610d1457610d13610dc3565b5b50919050565b610d2382610e21565b810181811067ffffffffffffffff82111715610d4257610d41610df2565b5b80604052505050565b6000610d5682610c9c565b91507fffffffffffffffffffffffffffffffffffffffffffffffffffffffffffffffff821415610d8957610d88610d94565b5b600182019050919050565b7f4e487b7100000000000000000000000000000000000000000000000000000000600052601160045260246000fd5b7f4e487b7100000000000000000000000000000000000000000000000000000000600052602260045260246000fd5b7f4e487b7100000000000000000000000000000000000000000000000000000000600052604160045260246000fd5b6000601f19601f8301169050919050565b610e3b81610c6a565b8114610e4657600080fd5b5056fea264697066735822122028a582a3213288c73fba4637afc2b8e312206d2033e512e8301c65ef240da57964736f6c634300080400334865792c2049276d206120736d61727420636f6e747261637421204e69636520746f206d65657420796f752e",
  "linkReferences": {},
  "deployedLinkReferences": {}
}